
transaction ba5f2650a46db9c7ac6521d0f121125b7ea04603d4b7e47da2c7d836c3aea491 in block 000000000000000000005eeaee07fcee89e585dc2f5533c7c07932ed02443595 is undefined
transaction 737306ee4bc405b23bd236e0cf6c847d870fe56a21ca0a1e9fc70481c9ab3cfa in block 000000000000000000005eeaee07fcee89e585dc2f5533c7c07932ed02443595 is undefined
transaction ba5f2650a46db9c7ac6521d0f121125b7ea04603d4b7e47da2c7d836c3aea491 in block 000000000000000000005eeaee07fcee89e585dc2f5533c7c07932ed02443595 is undefined
transaction 07e0a5dec7319067a0544e953703b0e8a19f8135b2aeee74a104d21a709f3743 in block 000000000000000000005eeaee07fcee89e585dc2f5533c7c07932ed02443595 is {"txid":"07e0a5dec7319067a0544e953703b0e8a19f8135b2aeee74a104d21a709f3743","hash":"9c22a96e5d84c5748afc8767f1c2ff04791c98b01db37320a1b0b695575b087d","version":1,"size":348,"vsize":321,"weight":1284,"locktime":0,"vin":[{"coinbase":"0395530d1c2f5669614254432f4d696e656420627920616e67617261323031332f2cfabe6d6d399965e0189ab7200b71432d3c4a55013981eeda402b03fcca6e148ded19c6a8100000000000000010bf63e305c52b3269fe1923c5e31d1f0000000000","txinwitness":["0000000000000000000000000000000000000000000000000000000000000000"],"sequence":4294967295}],"vout":[{"value":3.18905289,"n":0,"scriptPubKey":{"asm":"OP_DUP OP_HASH160 fb37342f6275b13936799def06f2eb4c0f201515 OP_EQUALVERIFY OP_CHECKSIG","desc":"addr(1PuJjnF476W3zXfVYmJfGnouzFDAXakkL4)#fk03svwv","hex":"76a914fb37342f6275b13936799def06f2eb4c0f20151588ac","address":"1PuJjnF476W3zXfVYmJfGnouzFDAXakkL4","type":"pubkeyhash"}},{"value":0,"n":1,"scriptPubKey":{"asm":"OP_RETURN 52534b424c4f434b3a8d3ff3807b90e56dc3850fcb01a15030214cf40fe890bb423642d50f006a90f3","desc":"raw(6a2952534b424c4f434b3a8d3ff3807b90e56dc3850fcb01a15030214cf40fe890bb423642d50f006a90f3)#hy5mfw2p","hex":"6a2952534b424c4f434b3a8d3ff3807b90e56dc3850fcb01a15030214cf40fe890bb423642d50f006a90f3","type":"nulldata"}},{"value":0,"n":2,"scriptPubKey":{"asm":"OP_RETURN 4558534154011508000113021b1a1f120013","desc":"raw(6a124558534154011508000113021b1a1f120013)#lu92lphx","hex":"6a124558534154011508000113021b1a1f120013","type":"nulldata"}},{"value":0,"n":3,"scriptPubKey":{"asm":"OP_RETURN aa21a9edaf8942fc2953c3e8e3308bedaece5049b51f557bdf5e8c21f3b1a16dc98708cf","desc":"raw(6a24aa21a9edaf8942fc2953c3e8e3308bedaece5049b51f557bdf5e8c21f3b1a16dc98708cf)#7tw87ml0","hex":"6a24aa21a9edaf8942fc2953c3e8e3308bedaece5049b51f557bdf5e8c21f3b1a16dc98708cf","type":"nulldata"}}],"hex":"010000000001010000000000000000000000000000000000000000000000000000000000000000ffffffff630395530d1c2f5669614254432f4d696e656420627920616e67617261323031332f2cfabe6d6d399965e0189ab7200b71432d3c4a55013981eeda402b03fcca6e148ded19c6a8100000000000000010bf63e305c52b3269fe1923c5e31d1f0000000000ffffffff04c91b0213000000001976a914fb37342f6275b13936799def06f2eb4c0f20151588ac00000000000000002b6a2952534b424c4f434b3a8d3ff3807b90e56dc3850fcb01a15030214cf40fe890bb423642d50f006a90f30000000000000000146a124558534154011508000113021b1a1f1200130000000000000000266a24aa21a9edaf8942fc2953c3e8e3308bedaece5049b51f557bdf5e8c21f3b1a16dc98708cf0120000000000000000000000000000000000000000000000000000000000000000000000000"}